:020000040800F2
:1000000000500020851B0008C9030008CB0300082E
:10001000CD030008CF030008D10300080000000052
:10002000000000000000000000000000D3030008F2
:10003000D503000800000000D7030008D90300081A
:10004000CD1B0008CD1B0008CD1B0008CD1B0008F0
:10005000CD1B0008CD1B0008CD1B0008CD1B0008E0
:10006000CD1B0008CD1B0008CD1B0008CD1B0008D0
:10007000CD1B0008CD1B0008CD1B0008CD1B0008C0
:10008000CD1B0008CD1B0008CD1B0008CD1B0008B0
:10009000CD1B0008CD1B0008CD1B0008CD1B0008A0
:1000A000CD1B0008CD1B0008CD1B0008CD1B000890
:1000B000CD1B0008CD1B0008CD1B0008CD1B000880
:1000C000CD1B0008CD1B0008CD1B0008CD1B000870
:1000D000CD1B0008CD1B0008CD1B0008CD1B000860
:1000E000CD1B0008CD1B0008CD1B00080000000040
:1000F0000000000000000000000000000000000000
:0C01000000000000000000005FF808F1A3
:10010C000348044B834202D0034B03B1184770479A
:10011C000C0000200C000020000000000548064BDD
:10012C001B1AD90F01EBA301491002D0034B03B1E9
:10013C00184770470C0000200C0000200000000045
:10014C0010B5064C237843B9FFF7DAFF044B13B113
:10015C000448AFF300800123237010BD0C00002075
:10016C0000000000D01B000808B5044B1BB104496B
:10017C000448AFF30080BDE80840CFE70000000062
:10018C0010000020D01B000870B50D4E0D4D761BD5
:10019C00B61006D0002455F8043B01349847A6420B
:1001AC00F9D1094E094D01F00DFD761BB61006D0A4
:1001BC00002455F8043B01349847A642F9D170BD90
:1001CC00141C0008141C0008181C0008141C00083F
:1001DC00830730B548D0541E002A3FD00346CAB21C
:1001EC0001E0013C3AD303F8012B9D07F9D1032C14
:1001FC002DD9CDB245EA05250F2C45EA054536D952
:10020C00A4F1100222F00F0C03F1200EE6444FEA89
:10021C00121C03F1100242E9045542E90255103256
:10022C007245F8D10CF1010214F00C0F03EB021221
:10023C0004F00F0C13D0ACF1040323F003030433CC
:10024C00134442F8045B9342FBD10CF003042CB131
:10025C00CAB21C4403F8012B9C42FBD130BD64464E
:10026C001346002CF4D1F9E703461446BFE71A46AF
:10027C00A446E0E772B6FEE700B595B0282200214F
:10028C000DEB0200FFF7A4FF0023059306930793E1
:10029C0008930993019302930393049301220A9206
:1002AC004FF480330B930E920222119212934FF45F
:1002BC00E01313930AA800F0C3FAC8B90F230593EF
:1002CC0002210691002307934FF480620892099350
:1002DC0005A800F0E7FC68B9022301934FF4004332
:1002EC00039301A800F0BAFD30B915B05DF804FB1A
:1002FC00FFF7C0FFFFF7BEFFFFF7BCFF08B500F02C
:10030C0065FAFFF7B9FF00F00BF800F0CDFF01F034
:10031C00CDF801F027F901F0B9F900F0ABFFFEE7D9
:10032C0030B589B000240494059406940794204BAE
:10033C009A6942F020029A619A6902F020020192B5
:10034C00019A9A6942F004029A619A6902F00402D5
:10035C000292029A9A6942F008029A619B6903F030
:10036C0008030393039B134D22464FF201012846C9
:10037C0000F00EFFD02304930594069404A90E48B4
:10038C0000F0F8FD4FF2010304930123059306944A
:10039C000223079304A9284600F0ECFDC223049322
:1003AC000594069404A9284600F0E4FD09B030BD7C
:1003BC0000100240000C014000080140FEE7FEE77F
:1003CC00FEE7FEE7FEE770477047704708B500F0A0
:1003DC000FFA08BD82B00E4B9A6942F001029A6185
:1003EC009A6902F001020092009ADA6942F0805296
:1003FC00DA61DB6903F080530193019B054A536872
:10040C0023F0E06343F00073536002B0704700BF09
:10041C00001002400000014030B4026A036A23F06D
:10042C00010303624568836923F073030C681C4362
:10043C0022F002028B6813430B4A904206D04560AF
:10044C0084614A684263036230BC704723F008033E
:10045C00CA681A4322F0040325F440754A692A43FA
:10046C008D691543EBE700BF002C014030B4036AE3
:10047C00026A22F4807202624468C26922F073023A
:10048C000D68154323F400738A6843EA02230D4A6E
:10049C00904206D04460C5614A68C263036230BCB6
:1004AC00704723F40063CA6843EA022323F4806391
:1004BC0024F440544A6944EA02148A6944EA021456
:1004CC00E8E700BF002C014030B4036A026A22F452
:1004DC00805202624468C26922F4E6420D6842EA24
:1004EC00052223F400538D6843EA0533074DA842D7
:1004FC0006D04460C2614A680264036230BC704733
:10050C0024F480444D6944EA8514F2E7002C014040
:10051C0003681B4A90420AD0B0F1804F07D0A2F575
:10052C009432904203D002F58062904203D123F0C2
:10053C0070034A681343124A90420AD0B0F1804FBC
:10054C0007D0A2F59432904203D002F5806290421B
:10055C0003D123F44073CA68134323F080034A6920
:10056C00134303608B68C3620B688362044B98422D
:10057C0002D00123436170470B690363F9E700BFA5
:10058C00002C014040B310B5044690F83D30F3B157
:10059C00022384F83D30214651F8040BFFF7B8FFD5
:1005AC00012384F8463084F83E3084F83F3084F8D8
:1005BC00403084F8413084F8423084F8433084F879
:1005CC00443084F8453084F83D30002010BD80F86C
:1005DC003C3001F021F8DBE70120704730B4036AAE
:1005EC00026A22F0100202624468826922F4E64236
:1005FC000D6842EA052223F020038D6843EA0513B7
:10060C000C4DA84206D0446082614A688263036242
:10061C0030BC704723F08003CD6843EA051323F008
:10062C00400324F440644D6944EA85048D6944EA2E
:10063C008504E8E7002C014038B590F83C30012BDC
:10064C0066D004460D46012380F83C300C2A5AD85B
:10065C00DFE802F0075959591B5959593059595962
:10066C0044000068FFF7D8FE2268936943F0080342
:10067C0093612268936923F0040393612268936960
:10068C0029690B43936100203EE00068FFF7A6FF49
:10069C002268936943F4006393612268936923F49D
:1006AC008063936122689369296943EA012393610A
:1006BC00002029E00068FFF7D9FE2268D36943F0D7
:1006CC000803D3612268D36923F00403D361226841
:1006DC00D36929690B43D361002015E00068FFF74B
:1006EC00F3FE2268D36943F40063D3612268D369B3
:1006FC0023F48063D3612268D369296943EA012317
:10070C00D361002000E00120002384F83C3038BD88
:10071C000220FCE790F83C20012A2CD010B40346B0
:10072C00012280F83C20022280F83D2002685068AB
:10073C00946820F0700C086840EA0C0050601A684D
:10074C000E4882420AD0B2F1804F07D0A0F5943007
:10075C00824203D000F58060824204D124F08004F0
:10076C00496821439160012283F83D20002083F8E1
:10077C003C0010BC70470220704700BF002C0140A9
:10078C0010B504460E4B1A784FF47A73B3FBF2F3A0
:10079C000C4A1068B0FBF3F000F056FD68B90F2C52
:1007AC0001D901200AE0002221464FF0FF3000F071
:1007BC003BFD054B1C60002000E0012010BD00BF7C
:1007CC0000000020080000200400002008B5074AA3
:1007DC00136843F010031360032000F013FD0F2087
:1007EC00FFF7CEFFFFF7F6FD002008BD002002400A
:1007FC00034A1168034B1B780B441360704700BF0E
:10080C002800002000000020014B1868704700BF32
:10081C002800002082B0084B1B68084AA2FB032367
:10082C005B0A00FB03F3019300BF019B5A1E01926C
:10083C00002BF9D102B0704708000020D34D621094
:10084C00002800F0F18170B582B00446036813F003
:10085C00010F2CD0994B5B6803F00C03042B1DD0BB
:10086C00964B5B6803F00C03082B12D06368B3F54E
:10087C00803F41D0002B55D103F1804303F5043365
:10088C001A6822F480321A601A6822F480221A60E4
:10089C0037E08A4B5B6813F4803FE7D0874B1B68CB
:1008AC0013F4003F03D06368002B00F0BF81236872
:1008BC0013F0020F75D0814B5B6813F00C0F5FD0F7
:1008CC007E4B5B6803F00C03082B54D02369002B80
:1008DC0000F08A807A4B01221A60FFF795FF0546DB
:1008EC00764B1B6813F0020F75D1FFF78DFF401B81
:1008FC000228F5D903209EE1704A136843F4803333
:10090C001360636843B3FFF77FFF05466B4B1B68AF
:10091C0013F4003FCBD1FFF777FF401B6428F5D9C8
:10092C00032088E1B3F5A02F09D0644B1A6822F498
:10093C0080321A601A6822F480221A60E1E703F10F
:10094C008043A3F53C331A6842F480221A601A687B
:10095C0042F480321A60D4E7FFF756FF0546574B36
:10096C001B6813F4003FA2D0FFF74EFF401B642816
:10097C00F5D903205FE1514B5B6813F4803FA5D19F
:10098C004E4B1B6813F0020F03D02369012B40F070
:10099C004F814A4A136823F0F803616943EAC103A3
:1009AC001360236813F0080F33D0A369002B5CD0BD
:1009BC00434B0122C3F88024FFF726FF05463F4B2B
:1009CC005B6A13F0020F21D1FFF71EFF401B0228B8
:1009DC00F5D903202FE1394A136823F0F803616934
:1009EC0043EAC1031360DCE7354B00221A60FFF7C2
:1009FC000BFF0546314B1B6813F0020FD1D0FFF7EC
:100A0C0003FF401B0228F5D9032014E10120FFF756
:100A1C0001FF236813F0040F00F09680274BDB696D
:100A2C0013F0805F34D1254BDA6942F08052DA61E1
:100A3C00DB6903F080530193019B0125214B1B685B
:100A4C0013F4807F26D0E368012B3DD0002B53D1CB
:100A5C0003F1804303F504331A6A22F001021A628F
:100A6C001A6A22F004021A6233E0154B0022C3F812
:100A7C008024FFF7C9FE0546104B5B6A13F0020F8A
:100A8C00C7D0FFF7C1FE401B0228F5D90320D2E0E6
:100A9C000025D3E70B4A136843F480731360FFF708
:100AAC00B3FE0646074B1B6813F4807FCBD1FFF7D0
:100ABC00ABFE801B6428F5D90320BCE0001002407B
:100ACC0000004242007000405F4A136A43F0010389
:100ADC001362E36833B3FFF797FE06465A4B1B6A63
:100AEC0013F0020F2FD1FFF78FFE801B41F28833DA
:100AFC009842F3D903209EE0052B09D0524B1A6A79
:100B0C0022F001021A621A6A22F004021A62E0E769
:100B1C004D4B1A6A42F004021A621A6A42F0010240
:100B2C001A62D6E7FFF770FE0646474B1B6A13F0B6
:100B3C00020F08D0FFF768FE801B41F28833984201
:100B4C00F3D9032077E0E5B9E369002B72D03E4A74
:100B5C00526802F00C02082A56D0022B17D03B4BDD
:100B6C0000221A66FFF750FE0446374B1B6813F041
:100B7C00007F47D0FFF748FE001B0228F5D9032061
:100B8C0059E0314AD36923F08053D361DCE72F4B12
:100B9C0000221A66FFF738FE05462B4B1B6813F034
:100BAC00007F06D0FFF730FE401B0228F5D903204A
:100BBC0041E0236AB3F5803F1AD023494B6823F4F4
:100BCC007413226A606A024313434B601F4B012269
:100BDC001A66FFF719FE04461B4B1B6813F0007FC7
:100BEC000ED1FFF711FE001B0228F5D9032022E0DD
:100BFC00154A536823F40033A1680B435360DCE7B8
:100C0C00002018E0002016E0012B16D00E4B5B687C
:100C1C0003F48031226A914211D103F47013626A99
:100C2C0093420ED1002006E001207047012002E023
:100C3C00012000E0002002B070BD0120FBE7012084
:100C4C00F9E70120F7E700BF001002400000424224
:100C5C000F4B5B6803F00C02082A01D00D4870475B
:100C6C00C3F383420C49885C13F4803F0BD0084BD0
:100C7C005B68C3F34043094AD35C064A02FB00F0AD
:100C8C00B0FBF3F07047064B03FB00F0704700BF5E
:100C9C000010024000127A00EC1B0008E81B000850
:100CAC0000093D00002800F0A08070B50D460446F8
:100CBC00524B1B6803F007038B420BD24F4A13684D
:100CCC0023F007030B431360136803F007038B42F5
:100CDC0040F08D80236813F0020F17D013F0040F2F
:100CEC0004D0474A536843F4E0635360236813F01D
:100CFC00080F04D0424A536843F460535360404A8F
:100D0C00536823F0F003A1680B435360236813F07E
:100D1C00010F31D06368012B20D0022B25D0384A2B
:100D2C00126812F0020F64D035494A6822F00302AF
:100D3C0013434B60FFF768FD0646314B5B6803F0CD
:100D4C000C036268B3EB820F16D0FFF75DFD801BBE
:100D5C0041F288339842F0D9032045E0284A1268C2
:100D6C0012F4003FE0D101203EE0254A126812F057
:100D7C00007FD9D1012037E0204B1B6803F007031B
:100D8C00AB420AD91D4A136823F007032B431360A7
:100D9C00136803F00703AB422DD1236813F0040F43
:100DAC0006D0174A536823F4E063E1680B435360A1
:100DBC00236813F0080F07D0114A536823F46053CB
:100DCC00216943EAC1035360FFF742FF0C4B5B6898
:100DDC00C3F303130B4AD35CD8400B4B18600B4B7B
:100DEC001868FFF7CDFC002070BD01207047012072
:100DFC00FAE70120F8E70120F6E700BF00200240E7
:100E0C0000100240041C0008080000200400002010
:100E1C00014B1868704700BF0800002008B5FFF7A9
:100E2C00F7FF044B5B68C3F30223034AD35CD8403F
:100E3C0008BD00BF00100240FC1B000808B5FFF7FE
:100E4C00E7FF044B5B68C3F3C223034AD35CD8406F
:100E5C0008BD00BF00100240FC1B000870B582B03A
:100E6C000446036813F0010F36D03F4BDB6913F0D7
:100E7C00805F49D13C4BDA6942F08052DA61DB6920
:100E8C0003F080530193019B0125384B1B6813F42D
:100E9C00807F3BD0344B1B6A13F4407313D06268D1
:100EAC0002F440729A420ED02F4A136A23F4407017
:100EBC002F490126C1F840640026C1F84064106235
:100ECC0013F0010F36D1284A136A23F4407361687A
:100EDC000B431362002D3ED1236813F0020F06D092
:100EEC00214A536823F44043A1680B4353602368A1
:100EFC0013F0100F34D01C4A536823F48003E168BC
:100F0C000B43536000202CE00025BEE7174A136802
:100F1C0043F480731360FFF777FC0646134B1B6892
:100F2C0013F4807FB6D1FFF76FFC801B6428F5D9D2
:100F3C00032016E0FFF768FC06460B4B1B6A13F008
:100F4C00020FC0D1FFF760FC801B41F2883398423E
:100F5C00F3D9032005E0D36923F08053D361BBE7B9
:100F6C00002002B070BD00BF0010024000700040B5
:100F7C000000424270B582B00024A446A2E07E4D2F
:100F8C00AB4210D007D97D4DAB420CD005F5803566
:100F9C00AB4208D013E0A5F58015AB4203D005F5A4
:100FAC007025AB4207D18B68002B55D0012B4ED04E
:100FBC004261082403E0A5F58015AB42F3D0BEF1E5
:100FCC00FF0F4BD806464FEA8C0233680F2595402D
:100FDC0023EA050304FA02F2134333604B6813F05F
:100FEC00805F6DD0664B9A6942F001029A619B69F1
:100FFC0003F001030193019B4FEA9C02951C614B8A
:10100C0053F825600CF00305AD000F23AB4026EA26
:10101C0003065D4B984228D003F58063984200F09C
:10102C008D8003F58063984200F08A8003F580631D
:10103C00984218D0042319E0CC68C0E7CC6804347B
:10104C00BDE7CC680834BAE7CC680C34B7E702616A
:10105C000824B4E70024B2E70424B0E7061DACF181
:10106C0008029200B1E7032300E00023AB403343B6
:10107C000232444D45F822304B6813F4801F61D086
:10108C00424A936843EA0E0393604B6813F4001FC3
:10109C005ED03E4AD36843EA0E03D3604B6813F428
:1010AC00003F5BD0394A536843EA0E0353604B68E8
:1010BC0013F4803F58D0354A136843EA0E0313608B
:1010CC000CF1010C0B6833FA0CF253D0012202FA2A
:1010DC000CF203EA020E32EA0303F1D14B68122B35
:1010EC003FF64DAF122B3FF66AAF01A555F823F032
:1010FC00B30F0008451000084F10000861100008DD
:10110C00CB0F0008CB0F0008CB0F0008CB0F00084B
:10111C00CB0F0008CB0F0008CB0F0008CB0F00083B
:10112C00CB0F0008CB0F0008CB0F0008CB0F00082B
:10113C00CB0F00084910000855100008012395E753
:10114C00022393E7114A936823EA0E0393609CE70A
:10115C000E4AD36823EA0E03D3609FE70B4A536809
:10116C0023EA0E035360A2E7084A136823EA0E032E
:10117C001360A5E702B070BD000022100000311012
:10118C000010024000000140000801400004014032
:10119C000AB101617047090401617047002808DB3E
:1011AC000901C9B200F1604000F5614080F80013FC
:1011BC00704700F00F000901C9B2014B1954704778
:1011CC0014ED00E000B500F00700C0F1070CBCF115
:1011DC00040F28BF4FF0040C031D062B0FD9C31EA0
:1011EC004FF0FF3E0EFA0CF021EA000199400EFA86
:1011FC0003FE22EA0E0241EA02005DF804FB002322
:10120C00EEE70000074AD36823F4E0631B041B0CD1
:10121C00000200F4E060034343F0BF6343F4003387
:10122C00D360704700ED00E010B50446054BD8685C
:10123C00C0F30220FFF7C6FF01462046FFF7AEFFC2
:10124C0010BD00BF00ED00E00138B0F1807F0BD283
:10125C004FF0E0235861054AF02182F8231000205A
:10126C00986107221A6170470120704700ED00E079
:10127C007047000008B50A480A4B03604FF4E1338D
:10128C00436000238360C36003610C22426183616D
:10129C00C36100F0DBF800B908BDFEF7EBFFFBE71C
:1012AC00740000200038014008B50A480A4B03605E
:1012BC004FF4E133436000238360C36003610C226D
:1012CC0042618361C36100F0C1F800B908BDFEF74B
:1012DC00D1FFFBE72C0000200048004010B588B07F
:1012EC000023049305930693079303682D4A9342B6
:1012FC0004D02D4A93422BD008B010BD2B4B9A69C9
:10130C0042F480429A619A6902F480420092009AF7
:10131C009A6942F004029A619B6903F004030193F9
:10132C00019B4FF40073049302230593032307934B
:10133C001F4C04A92046FFF71DFE4FF48063049355
:10134C0000230593069304A92046FFF713FED3E769
:10135C00164BDA6942F48022DA61DA6902F48022EF
:10136C000292029A9A6942F008029A619B6903F010
:10137C0008030393039B4FF48063049302230593A8
:10138C00032307930B4C04A92046FFF7F3FD4FF4FE
:10139C000063049300230593069304A92046FFF7EA
:1013AC00E9FDA9E700380140004800400010024068
:1013BC0000080140000C014010B504460268136996
:1013CC0023F44053C1680B431361836802691343D0
:1013DC0042691A430168CB6823F4B05323F00C0321
:1013EC001343CB600268536923F4407381690B4348
:1013FC0053610268134B9A4220D0FFF70FFD02464F
:10140C0002EB820202EB820263689B00B2FBF3F2F6
:10141C000D48A0FB02314909642303FB11231B0176
:10142C003233A0FB03035B0903F0F00202EB011261
:10143C0003F00F03216813448B6010BDFFF7FEFC13
:10144C000246DDE7003801401F85EB5160B310B553
:10145C00044690F8413013B3242384F841302268B9
:10146C00D36823F40053D3602046FFF7A5FF22680E
:10147C00136923F4904313612268536923F02A0300
:10148C0053612268D36843F40053D3600020606436
:10149C00202384F8413084F84230606310BD80F81A
:1014AC004030FFF71BFFD7E70120704700B585B030
:1014BC0000230193029303931048114A0260836046
:1014CC00037303754FF46022C2614360012303610F
:1014DC0000F0F0F960B9002301930122029203930A
:1014EC0001A9064800F01AF928B905B05DF804FB0B
:1014FC00FEF7C0FEEFE7FEF7BDFEF6E7BC000020EE
:10150C000024014000B587B0002302930393049399
:10151C0005930268114B9A4202D007B05DF804FBA8
:10152C0003F56C439A6942F400729A619A6902F469
:10153C0000720092009A9A6942F004029A619B69C7
:10154C0003F004030193019B0123029303230393F0
:10155C0002A90348FFF70EFDDFE700BF002401409E
:10156C000008014008B50B480B4B03600B4B436064
:10157C0000238360C3604FF4804202614361836146
:10158C00C361036200F01AFA00B908BDFEF772FEDF
:10159C00FBE700BFEC00002000540040801A06005E
:1015AC0010B586B00023029303930493059302684D
:1015BC00154B9A4201D006B010BD144CA36943F0F0
:1015CC000803A361A36903F008030093009B4FF485
:1015DC0040730293122303930323059302A90C482F
:1015EC00FFF7C8FC0B4A536843F0E06343F0020377
:1015FC005360E36943F40013E361E36903F40013FC
:10160C000193019BD7E700BF00540040001002403B
:10161C00000C0140000001400368B3F1804F00D082
:10162C00704782B003F50433DA6942F00102DA61E3
:10163C00DB6903F001030193019B02B070470000CA
:10164C0000B587B0002302930393049305930368BA
:10165C00B3F1804F02D007B05DF804FB03F50433FF
:10166C009A6942F004029A619B6903F004030193A6
:10167C00019B0C23029302230393059302A90248B6
:10168C00FFF778FCE7E700BF0008014000B58BB01E
:10169C0000230893099301930293039304930593F6
:1016AC00069307931C484FF08042026043608360AE
:1016BC004FF6FF72C26003618361FEF763FFF8B9F6
:1016CC0000230893099308A91348FFF723F8D0B90E
:1016DC00602301930023029303930593082201A92D
:1016EC000D48FEF7A9FF88B90C2201A90A48FEF79C
:1016FC00A3FF70B90848FFF7A3FF0BB05DF804FB1C
:10170C00FEF7B8FDDCE7FEF7B5FDE1E7FEF7B2FD4D
:10171C00EAE7FEF7AFFDEDE74001002030B482B000
:10172C000022019290F82420012A00F08F800346B9
:10173C00012280F824204A68062A2DD80468606BA0
:10174C0002EB8202053A4FF01F0C0CFA02FC20EA65
:10175C000C000D6805FA02F2024362630A68092A5A
:10176C0038D91C68E06802EB42021E3A4FF0070CB5
:10177C000CFA02FC20EA0C008D6805FA02F2024316
:10178C00E2600A68103A012A34D90020002283F85A
:10179C00242002B030BC70470C2A0DD80568286B89
:1017AC0002EB8202233A1F24944020EA04000C68C6
:1017BC00944020432863D1E70568E86A02EB820273
:1017CC00413A1F24944020EA04000C6894402043C2
:1017DC00E862C3E71C68206902EB42024FF0070C79
:1017EC000CFA02FC20EA0C008D6805FA02F20243A6
:1017FC002261C6E71A681648824205D09A6A42F0FE
:10180C0020029A620120C1E7906810F4000F1BD1EE
:10181C00906840F4000090600A68102A01D0002003
:10182C00B4E70C4A12680C49A1FB0212920C02EBB1
:10183C0082025200019202E0019A013A0192019A4D
:10184C00002AF9D10020A1E700209FE70220A0E7A1
:10185C00002401400800002083DE1B4338B50368D8
:10186C009A6812F0010F01D1002038BD04469A6825
:10187C0022F001029A60FEF7C7FF054623689B68B9
:10188C0013F0010F13D0FEF7BFFF431B022BF5D94A
:10189C0023689B6813F0010FF0D0A36A43F0100388
:1018AC00A362E36A43F00103E3620120DDE7002059
:1018BC00DBE7000000287BD070B50446836A002B60
:1018CC004DD02046FFF7CAFFA36A13F0100369D16D
:1018DC00002867D1A26A22F4885222F0020242F058
:1018EC000202A2626268E1690A43217B42EA410278
:1018FC00A568B5F5807F02D0012D36D01D46267D1A
:10190C00012E35D02668716821F469412943716034
:10191C002568AE68274931401143A960A168B1F52B
:10192C00807F01D0012902D12369013B1B05256869
:10193C00E96A21F470010B43EB62236899681E4B32
:10194C000B409A4225D0A36A23F0120343F01003F4
:10195C00A362E36A43F00103E362012027E0C36260
:10196C0080F82430FFF7CEFDABE74FF48075C6E767
:10197C0031B9A169013945EA413141F40065C1E74A
:10198C00A16A41F02001A162E16A41F00101E1622A
:10199C00B8E70023E362A36A23F0030343F00103D7
:1019AC00A36204E0A36A43F01003A362012070BD9C
:1019BC0001207047FDF7E1FFFE0E1FFF002800F02D
:1019CC00CC8070B5044690F83D30002B77D02423A2
:1019DC0084F83D302268136823F0010313602268F9
:1019EC00136843F4004313602268136823F4004324
:1019FC001360FFF713FA62685A4B9A4264D85A4B39
:101A0C0098428CBF00230123002B40F0A88057493B
:101A1C00A1FB00318B0C25686A6822F03F0242EA78
:101A2C0091426A6021680A6A22F03F0266684D4D55
:101A3C00AE424FD8013313430B622168CA6922F4BA
:101A4C004F4222F0FF026568464B9D424CD8431E24
:101A5C006D00B3FBF5F3013340F6FC70034278D014
:101A6C00C3F30B031A43CA6121680B6823F0C0034C
:101A7C00E269206A024313430B6021688B6823F4EC
:101A8C00034323F0FF032269E068024313438B6096
:101A9C002168CB6823F0FF036269A06902431343FA
:101AAC00CB602268136843F00103136000202064AC
:101ABC00202384F83D30206384F83E0070BD80F80C
:101ACC003C30FFF76DFD82E7294B98428CBF002319
:101ADC00012399E74FF4967505FB03F3254DA5FB00
:101AEC0003539B090133A6E7A668BEB9431E05EB59
:101AFC00450CB3FBFCF30133C3F30B03B3FA83F3D1
:101B0C005B0943BBC6B9431E05EB4505B3FBF5F3B7
:101B1C000133C3F30B0343F40043A3E7431E05EB6C
:101B2C00850C0CEB8C0CB3FBFCF30133C3F30B03F4
:101B3C00B3FA83F35B09E4E7431E05EB850505EB7C
:101B4C008505B3FBF5F30133C3F30B0343F44043B7
:101B5C0088E7042386E7012384E7012070470120EE
:101B6C00ACE700BFA08601007F841E0083DE1B4310
:101B7C00FF083D00D34D6210FFF77AFB0B480C4970
:101B8C000C4A002302E0D458C4500433C4188C42CD
:101B9C00F9D3094A094C002301E013600432A24234
:101BAC00FBD3FEF7F1FAFEF7A9FB7047000000200B
:101BBC000C0000201C1C00080C00002088010020D8
:101BCC00FEE70000F8B500BFF8BC08BC9E467047A5
:0C1BDC00F8B500BFF8BC08BC9E4670477E
:101BE8000102000002030405060708090A0B0C0D90
:101BF8000E0F101000000000010203040000000096
:0C1C0800000000000102030406070809A8
:041C1400750100084E
:041C18004D01000872
:0C1C1C0001000000100000000024F40093
:0400000508001B854F
:00000001FF
