:020000040800F2
:1000000000500020DD3500088D1700088F1700080C
:1000100091170008931700089517000800000000CA
:10002000000000000000000000000000971700081A
:1000300099170008000000009B1700089D17000892
:100040002536000825360008253600082536000824
:100050002536000825360008253600082536000814
:100060002536000825360008253600082536000804
:1000700025360008253600082536000825360008F4
:1000800025360008253600082536000825360008E4
:1000900025360008253600082536000825360008D4
:1000A00025360008253600082536000825360008C4
:1000B00025360008A5170008253600082536000853
:1000C00025360008253600082536000825360008A4
:1000D0002536000825360008253600082536000894
:1000E00025360008253600082536000800000000E7
:1000F0000000000000000000000000000000000000
:0C01000000000000000000005FF808F1A3
:100110000348044B834202D0034B03B11847704796
:100120007000002070000020000000000548064B11
:100130001B1AD90F01EBA301491002D0034B03B1E5
:100140001847704770000020700000200000000079
:1001500010B5064C237843B9FFF7DAFF044B13B10F
:100160000448AFF300800123237010BD700000200D
:10017000000000002836000808B5044B1BB10449F4
:100180000448AFF30080BDE80840CFE7000000005E
:100190007400002028360008014B1868704700BF23
:1001A0000000002070B50D4E0D4D761BB61006D028
:1001B000002455F8043B01349847A642F9D1094E72
:1001C000094D03F031FA761BB61006D0002455F81D
:1001D000043B01349847A642F9D170BDBC360008F3
:1001E000BC360008C0360008BC360008830730B5AE
:1001F00048D0541E002A3FD00346CAB201E0013C59
:100200003AD303F8012B9D07F9D1032C2DD9CDB298
:1002100045EA05250F2C45EA054536D9A4F110021B
:1002200022F00F0C03F1200EE6444FEA121C03F1FA
:10023000100242E9045542E9025510327245F8D1E4
:100240000CF1010214F00C0F03EB021204F00F0C7E
:1002500013D0ACF1040323F003030433134442F836
:10026000045B9342FBD10CF003042CB1CAB21C44D2
:1002700003F8012B9C42FBD130BD64461346002C91
:10028000F4D1F9E703461446BFE71A46A446E0E76F
:100290000CB430B50C466FF000459DB00A4A20AB57
:1002A000059253F8042B02A9CDE901340795049572
:1002B000069400F03BF90022029B1A701DB0BDE8C5
:1002C000304002B0704700BF0802FFFF0EB430B5E7
:1002D00004466FF000459CB00B4A1FAB0B490592DA
:1002E00053F8042B086802A9CDE901340795049559
:1002F000069400F01BF90022029B1A701CB0BDE8A6
:10030000304003B0704700BF0802FFFF000000202C
:1003100020F0030110F00300C0F1000051F8043B8D
:1003200000F1040C4FEACC0C6FF000021CBF22FA63
:100330000CF213434FF0010C4CEA0C2C4CEA0C4C21
:10034000A3EB0C0222EA030212EACC1204BF51F81A
:10035000043B0430F4D0C2F1000102EA0102B2FA17
:1003600082F2C2F11F0200EBD20070472DE9F04784
:100370008F680C469F421D46164638D882468889AB
:1003800010F4906F0ED13D4608682A46314600F0C1
:1003900091FC0020A2682368D21B2B44A26023603A
:1003A000BDE8F0874B69096903EB4308236808EB54
:1003B000D878A3EB01096B1C4FEA68084B4443450E
:1003C000424684BF98464246430513D511465046DF
:1003D00000F052FD074608B34A46216900F0F4FBDD
:1003E000A38923F4906343F08003A38107E01F46B1
:1003F0000868CAE7504600F09BFD074650B107EB7E
:100400000900A8EB09032761C4F814802F46A360F4
:100410002060BAE75046216900F0C8FC0C23CAF8F6
:100420000030A3894FF0FF3043F04003A381B7E7CA
:100430002DE9F04F9368914683B0002B6ED017687A
:1004400080460C4608688D68083744E0B4F80CC054
:100450001CF4906F2ED0D4E90413451A03EB430328
:1004600003EBD373AA194FEA630A531C5345524650
:1004700084BF9A4652461CF4806F36D011464046DF
:1004800000F0FAFC00283AD02A462169019000F0D9
:100490009BFBA289019B22F4906242F08002A28120
:1004A0005819AAEB0505A560C4F814A03546B24654
:1004B000236120605946524600F0FCFBD9F8083011
:1004C000A16820684D1B50449E1BA5602060C9F8A0
:1004D00008601EB3083757E902B6002EFAD0B542BD
:1004E000AA46B3D93546B246E4E7404600F020FDBF
:1004F00003460028D4D14046216900F057FC0C2364
:1005000000224FF0FF30C8F80030A38943F04003C9
:10051000A381C9E9012203B0BDE8F08F002318468A
:10052000C9F8043003B0BDE8F08F00BF2DE9F04FEB
:100530001C468B890F461D06804692469DB003D50A
:100540000B69002B00F0F380002309933023202255
:100550008DF82A309AF80030039401257B4C8DF8F1
:100560002920002B76D0D14603E019F8013F002B5B
:1005700079D0252BF9D1B9EB0A0B77D199F8002066
:10058000002A67D000234FF0FF3209F10109CDE9BD
:100590000523049307938DF853301A9304E0001B4E
:1005A00005FA00F018430490CA460522204619F8BF
:1005B000011B00F0C1FA049B0028F0D1D80644BF0B
:1005C00020228DF85320190748BF2B229AF80010DB
:1005D00048BF8DF853202A2956D1039A1168043256
:1005E000002903927EDB07919AF801100AF1010AB3
:1005F0002E295BD0DFF858910322484600F09CFA80
:1006000048B14022049BA0EB090002FA00F003432A
:100610000AF1010A04931AF8011B06224D488DF8CD
:10062000281000F089FA002862D04B4B002B52D0E2
:1006300003A900913A464046484B04A9AFF3008015
:100640000646721C06D0099B334409939AF8003081
:10065000002B88D1BB895B064CBF4FF0FF30099857
:100660001DB0BDE8F08FB9EB0A0BF3D05B465246E4
:1006700039464046FFF77AFE0130EBD0099B99F8E6
:1006800000205B4409937BE7A1F13002092AAFD82F
:10069000079B1AF8011F03EB830302EB4303A1F14D
:1006A0003002092AF5D92E290793A3D19AF801100F
:1006B0002A2927D1039B0AF102001A680433002A71
:1006C0000393B8BF4FF0FF339AF8021005928246A9
:1006D000B8BF05938EE7039B073323F00703083366
:1006E0000393B0E7494243F00203079104937BE789
:1006F00003A900913A464046184B04A900F0C6F8F9
:1007000006469EE70023A1F13002092A0AF1010AF8
:1007100005933FF66FAF1AF8011F03EB830302EB5B
:100720004303A1F13002092AF5D9059362E740217C
:1007300000F0A2FB3860386110B140237B6103E711
:100740000C234FF0FF30C8F8003089E780360008EE
:10075000883600088C360008000000006D03000891
:100760002DE9F04791461E460A698B680C469A426D
:10077000B8BF1A46C9F8002091F843300546DDF8A5
:10078000208013B10132C9F80020226891065DD59E
:10079000D9F800300233C9F80030226812F0060F91
:1007A00011461ED1E168CB1A002BD8BF114618DDC7
:1007B000002704F1190A06E0D9F80030E268A2EB3C
:1007C000030CBC450CDD0123524631462846C04788
:1007D000013007F10107EFD14FF0FF30BDE8F0879E
:1007E000216894F84330003B18BF01238A060AD5DC
:1007F0003021E21882F8431094F845105A1C224424
:10080000023382F843103146284604F14302C047C0
:100810000130E1D0236803F00603042B1DD0A36848
:100820002269934225DD00279B1A1F4404F11A090F
:10083000002401E0BC421CDA01234A463146284626
:10084000C047013004F10104F4D1C5E712F0060FEE
:1008500012D0003B18BF0123D5E7D9F80030E1687A
:100860002269C91AA36821EAE1779342DCDC0029F6
:10087000DCDC0020BDE8F087E168D9F80030CB1A55
:10088000002BD8BF114693DCABE700BF2DE9F04346
:1008900017460A7E85B00C46064698460C9D01F127
:1008A000430C002A33D0A2F15803D9B2202967D8CB
:1008B000202B65D8DFE813F0DD00640064006400DD
:1008C0006400640064006400640064006400A300C9
:1008D0006E0064006400640064006E0064006400E4
:1008E0006400640021007F00BF0064006400AE006B
:1008F00064007F0064006400E40023681A0640F18D
:1009000002812B686269191D29601B681A60002327
:10091000E14623613B4621463046CDF8008003AADC
:10092000FFF71EFF013020D04A4639463046236982
:10093000C047013019D02368E0689B07039919D597
:10094000431A002B16DD002504F1190904E0E068C4
:100950000399431AAB420DDD01234A46394630461E
:10096000C047013005F10105F1D14FF0FF3005B06E
:10097000BDE8F0838842B8BF084605B0BDE8F08303
:10098000012384F8422004F142092361002384F802
:100990004330BFE72368190602D45A0600F1BF802E
:1009A00029680A68043129601146002A6ADB0A2591
:1009B000DFF87CE110E02368180640F19A802B688C
:1009C000191D296019686F2A0CBF08250A25DFF850
:1009D00060E1002384F843306268002AA2607DDB76
:1009E000236823F004032360002959D1002A77D11A
:1009F000E146082D63D0ACEB090323618AE70122AD
:100A00002B6804F14209196804332B6084F8421002
:100A10002261BBE72B6800211A1D2A60D3F80090E1
:100A20006268484600F088F800287FD0A0EB0900F3
:100A300060602061AAE7236843F0200323607822E6
:100A4000DFF8F0E084F845202A68111D29601906B6
:100A500042D45D0640D51188D80744BF43F0200337
:100A60002360002943D12368102523F0200323604D
:100A7000AFE75823DFF8B8E084F845302368E3E7B0
:100A80002368DCE72D2284F8432062684942002A6B
:100A9000A26002DB23F0040323600A25DFF890E064
:100AA000E146B1FBF5F30A4605FB131019461EF8A3
:100AB0000030AA4209F8013DF3D2082D9BD12368EA
:100AC000D90798D5626823699A4294DC302309F1EA
:100AD000FF3989F800308EE71168BDE70029DFD1C2
:100AE0009EF8003004F1420984F8423081E7102575
:100AF0006FE713F0400F2B6803F1040129600CBF6E
:100B0000196819885FE713F0400F2B68626903F1D9
:100B1000040129601B6814BF1A801A60F7E62A686E
:100B2000B2F9001004322A600A463EE7606880E7A6
:100B300094360008A83600085FFA81FC810710D0BF
:100B40000346511E2AB90AE09A0718460AD001390D
:100B500005D3184613F8012B6245F5D170470020E4
:100B60007047114603290CD80029F8D003460144E8
:100B700001E08B42F3D0184613F8012B6245F8D1FF
:100B8000ECE7024610B54CEA0C2444EA0444104653
:100B9000036804326340A3F1013E2EEA030313F01D
:100BA000803F04D1043903291046F0D851B10346DF
:100BB000014401E08B4205D0184613F8012B624531
:100BC000F8D110BD002010BD844641EA000313F0A7
:100BD000030349D1403A23D30B6803604B68436059
:100BE0008B688360CB68C3600B6903614B694361A9
:100BF0008B698361CB69C3610B6A03624B6A436291
:100C00008B6A8362CB6AC3620B6B03634B6B436378
:100C10008B6B8363CB6BC36340304031403ADBD294
:100C200030320BD30B6803604B6843608B68836082
:100C3000CB68C36010301031103AF3D20C3205D3B8
:100C400051F8043B40F8043B043AF9D2043208D08E
:100C5000D2071CBF11F8013B00F8013B01D30B8800
:100C600003806046704700BF082A13D38B07B1D0BA
:100C700010F00303AED0C3F10403D21ADB071CBF8C
:100C800011F8013B00F8013BA4D331F8023B20F8F6
:100C9000023B9FE7043AD9D3013A11F8013B00F82F
:100CA000013BF9D20B7803704B7843708B788370DB
:100CB0006046704788420DD98B1883420AD900EBF1
:100CC000020CBAB1624613F801CD994202F801CD87
:100CD000F9D170470F2A0ED8034602F1FF3C4AB102
:100CE0000CF1010C013B8C4411F8012B614503F818
:100CF000012FF9D1704740EA01039B074FD1A2F1C0
:100D0000100370B501F1200C23F00F0501F1100E56
:100D100000F11004AC441B095EF8105C0EF1100EDB
:100D200044F8105C5EF81C5C103444F81C5C5EF8FF
:100D3000185C44F8185C5EF8145CE64544F8145CF2
:100D4000EAD1013312F00C0F01EB031102F00F0492
:100D500000EB031327D08E46043C24F003064FEA31
:100D6000940C1E441C1F5EF8045B44F8045FB442FC
:100D7000F9D10CF1010402F0030203EB840301EB4F
:100D8000840102F1FF3C4AB10CF1010C013B8C449F
:100D900011F8012B614503F8012FF9D170BD03460D
:100DA00002F1FF3C9CE72246EBE700BF002952D04E
:100DB00038B551F8043C0C1F002BB8BFE4180546A9
:100DC00000F0F0F82B4A1368002B45D0A3420CD951
:100DD00021686018834228D0636028461460BDE80B
:100DE000384000F0E1B8A3420FD81A465B68002BE8
:100DF000F9D11168501884421DD034D36360546017
:100E00002846BDE8384000F0CFB811685018A0421D
:100E100015D028D8216860188342EFD118685B6824
:100E20000144C4E900135460EAE718685B680144B0
:100E3000C4E90013D1E7236819441160E0E7206892
:100E40000144501883421160DAD1D3E90003014410
:100E5000C2E90013D4E77047284663601460BDE818
:100E6000384000F0A1B80C2328462B60BDE838407C
:100E700000F09AB88C000020F8B5CD1C25F00305D1
:100E800008350C2D38BF0C25002D064623DBA94262
:100E900021D8264F00F086F83A6822B3144603E0C2
:100EA00063682246FBB11C4623685B1BF8D40B2BFE
:100EB00015D8636894420CBF3B605360304600F025
:100EC00073F804F10B00231D20F00700C21A01D0B3
:100ED0001B1AA350F8BD0C2300203360F8BD23601B
:100EE0001C442560EAE77968D1B12946304600F014
:100EF00047F8431C01460CD0C41C24F00304A04254
:100F000005D03046611A00F03BF8013001D0256071
:100F1000D4E70C233046336000F046F80020F8BDDB
:100F2000304600F02DF87860DFE700BF8C0000202D
:100F3000F8B51446F9B1CAB106460D4600F036F8C8
:100F4000A04202D32F463846F8BD21463046FFF76F
:100F500093FF07460028F6D022462946FFF734FEC5
:100F600030462946FFF722FF3846F8BD2746FFF7EF
:100F70001DFF3846F8BD1146BDE8F840FFF77CBFBD
:100F8000002238B5064D044608462A6001F036FDB9
:100F9000431C00D038BD2B68002BFBD0236038BD2C
:100FA00094000020704700BF704700BF51F8040C48
:100FB0000028A0F10400BCBF0B58C018704700BF48
:100FC00070B54FF0FF0C4CF4E06C1CEA11541DBFDF
:100FD0001CEA135594EA0C0F95EA0C0F00F0DEF8AA
:100FE0002C4481EA030621EA4C5123EA4C5350EA8F
:100FF000013518BF52EA033541F4801143F48013E0
:1010000038D0A0FB02CE4FF00005E1FB02E506F070
:101010000042E0FB03E54FF00006E1FB03569CF0C5
:10102000000F18BF4EF0010EA4F1FF04B6F5007FCB
:1010300064F5407404D25FEA4E0E6D4146EB06063D
:1010400042EAC62141EA55514FEAC52040EA5E50C6
:101050004FEACE2EB4F1FD0C88BFBCF5E06F1ED870
:10106000BEF1004F08BF5FEA500E50F1000041EBA7
:10107000045170BD06F0004646EA010140EA020054
:1010800081EA0301B4EB5C04C2BFD4EB0C0541EA76
:10109000045170BD41F480114FF0000E013C00F38B
:1010A000AB8014F1360FDEBF002001F0004170BDAF
:1010B000C4F10004203C35DA0C341BDC04F11404C8
:1010C000C4F1200500FA05F320FA04F001FA05F254
:1010D00040EA020001F0004221F0004110EBD37021
:1010E00021FA04F642EB06015EEA430E08BF20EA4D
:1010F000D37070BDC4F10C04C4F1200500FA04F3F0
:1011000020FA05F001FA04F240EA020001F0004181
:1011100010EBD37041F100015EEA430E08BF20EAF4
:10112000D37070BDC4F1200500FA05F24EEA020E3C
:1011300020FA04F301FA05F243EA020321FA04F06B
:1011400001F0004121FA04F220EA020000EBD37022
:101150005EEA430E08BF20EAD37070BD94F0000F22
:101160000FD101F00046400041EB010111F4801F56
:1011700008BF013CF7D041EA060195F0000F18BF07
:10118000704703F00046520043EB030313F4801F43
:1011900008BF013DF7D043EA0603704794EA0C0FFD
:1011A0000CEA135518BF95EA0C0F0CD050EA410613
:1011B00018BF52EA4306D1D181EA030101F0004190
:1011C0004FF0000070BD50EA410606BF10461946B8
:1011D00052EA430619D094EA0C0F02D150EA0136C4
:1011E00013D195EA0C0F05D152EA03361CBF104605
:1011F00019460AD181EA030101F0004141F0FE41A4
:1012000041F470014FF0000070BD41F0FE4141F427
:10121000780170BD81F0004102E000BF83F000431F
:1012200030B54FEA41044FEA430594EA050F08BF81
:1012300090EA020F1FBF54EA000C55EA020C7FEA45
:10124000645C7FEA655C00F0E2804FEA5454D4EBC2
:101250005555B8BF6D420CDD2C4480EA020281EA8C
:10126000030382EA000083EA010180EA020281EAC4
:101270000303362D88BF30BD11F0004F4FEA013116
:101280004FF4801C4CEA113102D0404261EB410125
:1012900013F0004F4FEA03334CEA133302D05242AB
:1012A00063EB430394EA050F00F0A780A4F1010467
:1012B000D5F1200E0DDB02FA0EFC22FA05F28018A1
:1012C00041F1000103FA0EF2801843FA05F3594187
:1012D0000EE0A5F120050EF1200E012A03FA0EFC06
:1012E00028BF4CF0020C43FA05F3C01851EBE37130
:1012F00001F0004507D54FF0000EDCF1000C7EEB4D
:1013000000006EEB0101B1F5801F1BD3B1F5001F8A
:101310000CD349085FEA30004FEA3C0C04F10104A9
:101320004FEA445212F5800F80F09A80BCF1004FD2
:1013300008BF5FEA500C50F1000041EB045141EA54
:10134000050130BD5FEA4C0C404141EB0101013C1D
:1013500028BFB1F5801FE9D291F0000F04BF01460C
:101360000020B1FA81F308BF2033A3F10B03B3F1DE
:1013700020020CDA0C3208DD02F1140CC2F10C026E
:1013800001FA0CF021FA02F10CE002F11402D8BFCC
:10139000C2F1200C01FA02F120FA0CFCDCBF41EA98
:1013A0000C019040E41AA2BF01EB0451294330BD67
:1013B0006FEA04041F3C1CDA0C340EDC04F1140444
:1013C000C4F1200220FA04F001FA02F340EA03001B
:1013D00021FA04F345EA030130BDC4F10C04C4F161
:1013E000200220FA02F001FA04F340EA0300294641
:1013F00030BD21FA04F0294630BD94F0000F83F48B
:10140000801306BF81F480110134013D4EE77FEA6D
:10141000645C18BF7FEA655C29D094EA050F08BFB9
:1014200090EA020F05D054EA000C04BF194610469A
:1014300030BD91EA030F1EBF0021002030BD5FEADE
:10144000545C05D14000494128BF41F0004130BD06
:1014500014F580043CBF01F5801130BD01F000455A
:1014600045F0FE4141F470014FF0000030BD7FEACD
:10147000645C1ABF194610467FEA655C1CBF0B46C8
:10148000024650EA013406BF52EA033591EA030FDF
:1014900041F4002130BD00BF90F0000F04BF0021D7
:1014A000704730B54FF4806404F132044FF000050A
:1014B0004FF0000150E700BF90F0000F04BF002183
:1014C000704730B54FF4806404F1320410F00045E9
:1014D00048BF40424FF000013EE700BF42004FEAE4
:1014E000E2014FEA31014FEA02701FBF12F07F4361
:1014F00093F07F4F81F06051704732F07F4208BF18
:10150000704793F07F4F04BF41F40021704730B51E
:101510004FF4607401F0004521F000411CE700BF6A
:1015200050EA010208BF704730B54FF000050AE0ED
:1015300050EA010208BF704730B511F0004502D5EE
:10154000404261EB41014FF4806404F132045FEAF0
:10155000915C3FF4D8AE4FF003025FEADC0C18BF99
:1015600003325FEADC0C18BF033202EBDC02C2F18B
:10157000200300FA03FC20FA02F001FA03FE40EA1D
:101580000E0021FA02F11444BDE600BF4A0011D258
:1015900012F5001211D20DD56FF47873B3EB6252CD
:1015A0000ED44FEAC12343F0004343EA505323FAD9
:1015B00002F070474FF00000704750EA013002D14E
:1015C0004FF0FF3070474FF00000704772B6FEE7F3
:1015D00000B595B0282200210DEB0200FEF706FEB3
:1015E00000230593069307930893099301930293AD
:1015F0000393049301220A924FF480330B930E92CB
:101600000222119212934FF4E01313930AA800F0F0
:10161000C5FCC8B90F230593022106910023079347
:101620004FF480620892099305A800F0E9FE68B9BA
:10163000022301934FF40043039301A800F0BCFF81
:1016400030B915B05DF804FBFFF7C0FFFFF7BEFF30
:10165000FFF7BCFF00B59BB000F052FCFFF7B8FFEE
:1016600000F026F801F008FA01F0AAFB01F004FCF2
:1016700001F0EEFC01F0E6F901F058FC01F060FF2A
:101680000246094901A8FEF721FE01A8FEF740FE27
:101690004FF0FF3382B201A9044801F031FB64200E
:1016A00000F052FCEAE700BF40360008E8000020E6
:1016B0002DE9F04188B00024049405940694079421
:1016C0002E4B9A6942F010029A619A6902F0100258
:1016D0000092009A9A6942F020029A619A6902F097
:1016E00020020192019A9A6942F004029A619A6971
:1016F00002F004020292029A9A6942F008029A6188
:101700009B6903F008030393039BDFF87480224670
:101710004FF40051404601F0F0F81A4D22464FF2C6
:101720000101284601F0E9F84FF400530493012722
:10173000059706940226079604A9404600F0C8FFC4
:10174000D02304930594069404A90F4800F0C0FF29
:101750004FF20103049305970694079604A92846BF
:1017600000F0B6FFC22304930594069404A928460A
:1017700000F0AEFF08B0BDE8F08100BF00100240ED
:1017800000100140000C014000080140FEE7FEE7A8
:10179000FEE7FEE7FEE770477047704708B500F0C8
:1017A000C1FB08BD08B5024800F0D4F808BD00BF71
:1017B000B401002082B00E4B9A6942F001029A6196
:1017C0009A6902F001020092009ADA6942F08052AE
:1017D000DA61DB6903F080530193019B054A53688A
:1017E00023F0E06343F00073536002B0704700BF22
:1017F000001002400000014030B4026A036A23F086
:10180000010303624568836923F073030C681C437A
:1018100022F002028B6813430B4A904206D04560C7
:1018200084614A684263036230BC704723F0080356
:10183000CA681A4322F0040325F440754A692A4312
:101840008D691543EBE700BF002C014030B4036AFB
:10185000026A22F4807202624468C26922F0730252
:101860000D68154323F400738A6843EA02230D4A86
:10187000904206D04460C5614A68C263036230BCCE
:10188000704723F40063CA6843EA022323F48063A9
:1018900024F440544A6944EA02148A6944EA02146E
:1018A000E8E700BF002C014030B4036A026A22F46A
:1018B000805202624468C26922F4E6420D6842EA3C
:1018C000052223F400538D6843EA0533074DA842EF
:1018D00006D04460C2614A680264036230BC70474B
:1018E00024F480444D6944EA8514F2E7002C014059
:1018F00010B4036A046A24F001040462846924F0C9
:10190000F00C4CEA021223F00A030B4382610362DB
:1019100010BC704710B4036A046A24F01004046217
:10192000846924F4704C4CEA023223F0A00343EAA9
:1019300001138261036210BC7047836823F0700357
:101940000B4343F00703836070477047704770474D
:101950007047704710B5044603681A6912F0020F09
:1019600011D0DA6812F0020F0DD06FF002021A6186
:101970000123037703689B6913F0030F70D0FFF70F
:10198000E6FF0023237723681A6912F0040F12D0B0
:10199000DA6812F0040F0ED06FF004021A6102230D
:1019A000237723689B6913F4407F5FD02046FFF7BD
:1019B000CEFF0023237723681A6912F0080F12D094
:1019C000DA6812F0080F0ED06FF008021A610423D3
:1019D00023772368DB6913F0030F4ED02046FFF70F
:1019E000B6FF0023237723681A6912F0100F12D074
:1019F000DA6812F0100F0ED06FF010021A6108238F
:101A000023772368DB6913F4407F3DD02046FFF73E
:101A10009EFF0023237723681A6912F0010F03D079
:101A2000DA6812F0010F36D123681A6912F0800FBC
:101A300003D0DA6812F0800F34D123681A6912F0EB
:101A4000400F03D0DA6812F0400F32D123681A69D0
:101A500012F0200F03D0DA6812F0200F30D110BD41
:101A6000FFF774FF2046FFF773FF8AE72046FFF772
:101A70006DFF2046FFF76CFF9BE72046FFF766FFF0
:101A80002046FFF765FFACE72046FFF75FFF2046E3
:101A9000FFF75EFFBDE76FF001021A612046FFF716
:101AA00054FFC1E76FF080021A61204600F001FA8E
:101AB000C3E76FF040021A612046FFF74AFFC5E70F
:101AC0006FF020021A61204600F0F2F9C7E700002B
:101AD00003681B4A90420AD0B0F1804F07D0A2F5AC
:101AE0009432904203D002F58062904203D123F0F9
:101AF00070034A681343124A90420AD0B0F1804FF3
:101B000007D0A2F59432904203D002F58062904251
:101B100003D123F44073CA68134323F080034A6956
:101B2000134303608B68C3620B688362044B984263
:101B300002D00123436170470B690363F9E700BFDB
:101B4000002C014040B310B5044690F83D30F3B18D
:101B5000022384F83D30214651F8040BFFF7B8FF0B
:101B6000012384F8463084F83E3084F83F3084F80E
:101B7000403084F8413084F8423084F8433084F8AF
:101B8000443084F8453084F83D30002010BD80F8A2
:101B90003C3001F017FADBE70120704740B310B585
:101BA000044690F83D30F3B1022384F83D302146DD
:101BB00051F8040BFFF78CFF012384F8463084F8BA
:101BC0003E3084F83F3084F8403084F8413084F867
:101BD000423084F8433084F8443084F8453084F847
:101BE0003D30002010BD80F83C3001F0D7F9DBE734
:101BF0000120704730B4036A026A22F010020262C8
:101C00004468826922F4E6420D6842EA052223F024
:101C100020038D6843EA05130C4DA84206D04460AA
:101C200082614A688263036230BC704723F080039C
:101C3000CD6843EA051323F0400324F440644D6962
:101C400044EA85048D6944EA8504E8E7002C0140F4
:101C500038B590F83C30012B66D004460D46012380
:101C600080F83C300C2A5AD8DFE802F0075959595D
:101C70001B5959593059595944000068FFF7BCFDA8
:101C80002268936943F0080393612268936923F003
:101C9000040393612268936929690B4393610020CF
:101CA0003EE00068FFF7A6FF2268936943F40063F3
:101CB00093612268936923F4806393612268936936
:101CC000296943EA01239361002029E00068FFF7B6
:101CD000BDFD2268D36943F00803D3612268D3694C
:101CE00023F00403D3612268D36929690B43D361CC
:101CF000002015E00068FFF7D7FD2268D36943F4A0
:101D00000063D3612268D36923F48063D3612268BE
:101D1000D369296943EA0123D361002000E001204F
:101D2000002384F83C3038BD0220FCE710B48468FE
:101D300024F47F4C42EA03220A4342EA0C02826006
:101D400010BC704790F83C30012B78D010B5044699
:101D5000012380F83C30022380F83D30026893680C
:101D600023F47F4323F0770393600B68602B4CD000
:101D700029D8402B54D00CD9502B22D1CA6849689D
:101D80000068FFF7B5FD50212068FFF7D6FD002061
:101D900005E0202B0DD009D9302B0AD001200123DA
:101DA00084F83D30002384F83C3010BD0BB1102B7B
:101DB00005D119462068FFF7C0FD0020EFE701209C
:101DC000EDE70120EBE7B3F5805F34D0B3F5005FBA
:101DD0000CD1CB684A6889680068FFF7A7FF2268C2
:101DE000936843F4804393600020D8E7702B24D19C
:101DF000CB684A6889680068FFF798FF2268936893
:101E000043F0770393600020C9E7CA684968006817
:101E1000FFF780FD60212068FFF78FFD0020BEE7FF
:101E2000CA6849680068FFF763FD40212068FFF732
:101E300084FD0020B3E70020B1E70120AFE70220D6
:101E40007047000090F83C20012A2CD010B40346C3
:101E5000012280F83C20022280F83D200268506870
:101E6000946820F0700C086840EA0C0050601A6812
:101E70000E4882420AD0B2F1804F07D0A0F59430CC
:101E8000824203D000F58060824204D124F08004B5
:101E9000496821439160012283F83D20002083F8A6
:101EA0003C0010BC70470220704700BF002C01406E
:101EB0007047704710B504460E4B1A784FF47A738A
:101EC000B3FBF2F30C4A1068B0FBF3F000F080FDB6
:101ED00068B90F2C01D901200AE0002221464FF0F9
:101EE000FF3000F057FD054B1C60002000E0012092
:101EF00010BD00BF640000206C00002068000020BE
:101F000008B5074A136843F010031360032000F07C
:101F10002FFD0F20FFF7CEFFFFF74CFC002008BD80
:101F200000200240034A1168034B1B780B441360E6
:101F3000704700BF9800002064000020014B186823
:101F4000704700BF9800002038B50446FFF7F6FF41
:101F50000546B4F1FF3F02D0044B1B781C44FFF749
:101F6000EDFF401BA042FAD338BD00BF6400002043
:101F700082B0084B1B68084AA2FB03235B0A00FBE4
:101F800003F3019300BF019B5A1E0192002BF9D16C
:101F900002B070476C000020D34D6210002800F0A2
:101FA000F18170B582B00446036813F0010F2CD0A4
:101FB000994B5B6803F00C03042B1DD0964B5B68B8
:101FC00003F00C03082B12D06368B3F5803F41D0B7
:101FD000002B55D103F1804303F504331A6822F432
:101FE00080321A601A6822F480221A6037E08A4B25
:101FF0005B6813F4803FE7D0874B1B6813F4003F06
:1020000003D06368002B00F0BF81236813F0020F38
:1020100075D0814B5B6813F00C0F5FD07E4B5B6813
:1020200003F00C03082B54D02369002B00F08A80A6
:102030007A4B01221A60FFF781FF0546764B1B6839
:1020400013F0020F75D1FFF779FF401B0228F5D975
:1020500003209EE1704A136843F480331360636881
:1020600043B3FFF76BFF05466B4B1B6813F4003F50
:10207000CBD1FFF763FF401B6428F5D9032088E12B
:10208000B3F5A02F09D0644B1A6822F480321A608D
:102090001A6822F480221A60E1E703F18043A3F575
:1020A0003C331A6842F480221A601A6842F4803283
:1020B0001A60D4E7FFF742FF0546574B1B6813F43D
:1020C000003FA2D0FFF73AFF401B6428F5D9032058
:1020D0005FE1514B5B6813F4803FA5D14E4B1B6809
:1020E00013F0020F03D02369012B40F04F814A4ABD
:1020F000136823F0F803616943EAC103136023689E
:1021000013F0080F33D0A369002B5CD0434B01229E
:10211000C3F88024FFF712FF05463F4B5B6A13F0BC
:10212000020F21D1FFF70AFF401B0228F5D9032037
:102130002FE1394A136823F0F803616943EAC103C8
:102140001360DCE7354B00221A60FFF7F7FE054607
:10215000314B1B6813F0020FD1D0FFF7EFFE401B8D
:102160000228F5D9032014E10120FFF701FF2368BD
:1021700013F0040F00F09680274BDB6913F0805FAB
:1021800034D1254BDA6942F08052DA61DB6903F021
:1021900080530193019B0125214B1B6813F4807F21
:1021A00026D0E368012B3DD0002B53D103F18043AF
:1021B00003F504331A6A22F001021A621A6A22F045
:1021C00004021A6233E0154B0022C3F88024FFF7A3
:1021D000B5FE0546104B5B6A13F0020FC7D0FFF740
:1021E000ADFE401B0228F5D90320D2E00025D3E73D
:1021F0000B4A136843F480731360FFF79FFE064693
:10220000074B1B6813F4807FCBD1FFF797FE801B31
:102210006428F5D90320BCE00010024000004242CF
:10222000007000405F4A136A43F001031362E368E1
:1022300033B3FFF783FE06465A4B1B6A13F0020FB7
:102240002FD1FFF77BFE801B41F288339842F3D9F0
:1022500003209EE0052B09D0524B1A6A22F001029E
:102260001A621A6A22F004021A62E0E74D4B1A6AF7
:1022700042F004021A621A6A42F001021A62D6E7B8
:10228000FFF75CFE0646474B1B6A13F0020F08D0AF
:10229000FFF754FE801B41F288339842F3D90320A4
:1022A00077E0E5B9E369002B72D03E4A526802F04C
:1022B0000C02082A56D0022B17D03B4B00221A667C
:1022C000FFF73CFE0446374B1B6813F0007F47D0F6
:1022D000FFF734FE001B0228F5D9032059E0314AEC
:1022E000D36923F08053D361DCE72F4B00221A66B9
:1022F000FFF724FE05462B4B1B6813F0007F06D02A
:10230000FFF71CFE401B0228F5D9032041E0236A99
:10231000B3F5803F1AD023494B6823F47413226A23
:10232000606A024313434B601F4B01221A66FFF79A
:1023300005FE04461B4B1B6813F0007F0ED1FFF710
:10234000FDFD001B0228F5D9032022E0154A536841
:1023500023F40033A1680B435360DCE7002018E04E
:10236000002016E0012B16D00E4B5B6803F4803181
:10237000226A914211D103F47013626A93420ED122
:10238000002006E001207047012002E0012000E06B
:10239000002002B070BD0120FBE70120F9E7012019
:1023A000F7E700BF00100240000042420F4B5B689D
:1023B00003F00C02082A01D00D487047C3F3834292
:1023C0000C49885C13F4803F0BD0084B5B68C3F367
:1023D0004043094AD35C064A02FB00F0B0FBF3F02D
:1023E0007047064B03FB00F0704700BF001002402F
:1023F00000127A00583600085436000800093D00E3
:10240000002800F0A08070B50D460446524B1B68B2
:1024100003F007038B420BD24F4A136823F00703E4
:102420000B431360136803F007038B4240F08D8069
:10243000236813F0020F17D013F0040F04D0474A9B
:10244000536843F4E0635360236813F0080F04D02B
:10245000424A536843F460535360404A536823F040
:10246000F003A1680B435360236813F0010F31D0D0
:102470006368012B20D0022B25D0384A126812F055
:10248000020F64D035494A6822F0030213434B60BF
:10249000FFF754FD0646314B5B6803F00C0362689E
:1024A000B3EB820F16D0FFF749FD801B41F2883352
:1024B0009842F0D9032045E0284A126812F4003F00
:1024C000E0D101203EE0254A126812F0007FD9D108
:1024D000012037E0204B1B6803F00703AB420AD909
:1024E0001D4A136823F007032B431360136803F09E
:1024F0000703AB422DD1236813F0040F06D0174A0F
:10250000536823F4E063E1680B435360236813F0DE
:10251000080F07D0114A536823F46053216943EA36
:10252000C1035360FFF742FF0C4B5B68C3F3031317
:102530000B4AD35CD8400B4B18600B4B1868FFF765
:10254000B9FC002070BD012070470120FAE701208E
:10255000F8E70120F6E700BF00200240001002402B
:10256000703600086C00002068000020014B1868DD
:10257000704700BF6C00002008B5FFF7F7FF044B61
:102580005B68C3F30223034AD35CD84008BD00BF95
:10259000001002406836000808B5FFF7E7FF044B5B
:1025A0005B68C3F3C223034AD35CD84008BD00BFB5
:1025B000001002406836000870B582B00446036817
:1025C00013F0010F36D03F4BDB6913F0805F49D128
:1025D0003C4BDA6942F08052DA61DB6903F08053E8
:1025E0000193019B0125384B1B6813F4807F3BD07E
:1025F000344B1B6A13F4407313D0626802F44072C8
:102600009A420ED02F4A136A23F440702F490126B4
:10261000C1F840640026C1F84064106213F0010F55
:1026200036D1284A136A23F4407361680B4313625E
:10263000002D3ED1236813F0020F06D0214A5368C3
:1026400023F44043A1680B435360236813F0100F39
:1026500034D01C4A536823F48003E1680B43536071
:1026600000202CE00025BEE7174A136843F480736E
:102670001360FFF763FC0646134B1B6813F4807F5F
:10268000B6D1FFF75BFC801B6428F5D9032016E068
:10269000FFF754FC06460B4B1B6A13F0020FC0D128
:1026A000FFF74CFC801B41F288339842F3D903209A
:1026B00005E0D36923F08053D361BBE7002002B06B
:1026C00070BD00BF00100240007000400000424298
:1026D00070B582B00024A446A2E07E4DAB4210D07B
:1026E00007D97D4DAB420CD005F58035AB4208D003
:1026F00013E0A5F58015AB4203D005F57025AB427C
:1027000007D18B68002B55D0012B4ED04261082495
:1027100003E0A5F58015AB42F3D0BEF1FF0F4BD817
:1027200006464FEA8C0233680F25954023EA0503DD
:1027300004FA02F2134333604B6813F0805F6DD0EC
:10274000664B9A6942F001029A619B6903F00103AA
:102750000193019B4FEA9C02951C614B53F8256045
:102760000CF00305AD000F23AB4026EA03065D4BDA
:10277000984228D003F58063984200F08D8003F5DD
:102780008063984200F08A8003F58063984218D0F5
:10279000042319E0CC68C0E7CC680434BDE7CC68FA
:1027A0000834BAE7CC680C34B7E702610824B4E710
:1027B0000024B2E70424B0E7061DACF10802920041
:1027C000B1E7032300E00023AB4033430232444D22
:1027D00045F822304B6813F4801F61D0424A936859
:1027E00043EA0E0393604B6813F4001F5ED03E4A29
:1027F000D36843EA0E03D3604B6813F4003F5BD009
:10280000394A536843EA0E0353604B6813F4803F20
:1028100058D0354A136843EA0E0313600CF1010CDB
:102820000B6833FA0CF253D0012202FA0CF203EADD
:10283000020E32EA0303F1D14B68122B3FF64DAF83
:10284000122B3FF66AAF01A555F823F003270008C5
:10285000952700089F270008B12700081B270008BC
:102860001B2700081B2700081B2700081B27000840
:102870001B2700081B2700081B2700081B27000830
:102880001B2700081B2700081B2700081B27000820
:1028900099270008A5270008012395E7022393E75D
:1028A000114A936823EA0E0393609CE70E4AD368AB
:1028B00023EA0E03D3609FE70B4A536823EA0E0313
:1028C0005360A2E7084A136823EA0E031360A5E7E2
:1028D00002B070BD00002210000031100010024054
:1028E00000000140000801400004014083681942D3
:1028F00001D001207047002070470AB10161704784
:102900000904016170470000002808DB0901C9B211
:1029100000F1604000F5614080F80013704700F05E
:102920000F000901C9B2014B1954704714ED00E0C2
:1029300000B500F00700C0F1070CBCF1040F28BF80
:102940004FF0040C031D062B0FD9C31E4FF0FF3EA2
:102950000EFA0CF021EA000199400EFA03FE22EA79
:102960000E0241EA02005DF804FB0023EEE70000DE
:10297000074AD36823F4E0631B041B0C000200F435
:10298000E060034343F0BF6343F40033D360704718
:1029900000ED00E010B50446054BD868C0F30220F6
:1029A000FFF7C6FF01462046FFF7AEFF10BD00BF90
:1029B00000ED00E0002807DB00F01F0240090123C2
:1029C0009340024A42F82030704700BF00E100E027
:1029D0000138B0F1807F0BD24FF0E0235861054AF7
:1029E000F02182F823100020986107221A617047B5
:1029F0000120704700ED00E07047000010B503466D
:102A00000C4A0D490D48006840B10C480068034469
:102A1000521A934206D8094A136010BD0748084C61
:102A20000460F2E7FDF7B8FB0C2303604FF0FF30C2
:102A3000F3E700BF00500020000400009C000020CD
:102A40004802002008B50A480A4B03604FF4E133FE
:102A5000436000238360C36003610C224261836191
:102A6000C36100F01DF900B908BDFEF7AFFDFBE73B
:102A7000E80000200038014008B50A480A4B03600E
:102A80004FF4E133436000238360C36003610C2291
:102A900042618361C36100F003F900B908BDFEF72C
:102AA00095FDFBE7A00000200048004010B588B06D
:102AB0000023049305930693079303682D4A9342DA
:102AC00004D02D4A93422BD008B010BD2B4B9A69ED
:102AD00042F480429A619A6902F480420092009A1C
:102AE0009A6942F004029A619B6903F0040301931E
:102AF000019B4FF400730493022305930323079370
:102B00001F4C04A92046FFF7E3FD4FF480630493B4
:102B100000230593069304A92046FFF7D9FDD3E7C8
:102B2000164BDA6942F48022DA61DA6902F4802213
:102B30000292029A9A6942F008029A619B6903F034
:102B400008030393039B4FF48063049302230593CC
:102B5000032307930B4C04A92046FFF7B9FD4FF45C
:102B60000063049300230593069304A92046FFF70E
:102B7000AFFDA9E7003801400048004000100240C6
:102B800000080140000C014010B5044602681369BA
:102B900023F44053C1680B431361836802691343F4
:102BA00042691A430168CB6823F4B05323F00C0345
:102BB0001343CB600268536923F4407381690B436C
:102BC00053610268134B9A4220D0FFF7D5FC0246AE
:102BD00002EB820202EB820263689B00B2FBF3F21B
:102BE0000D48A0FB02314909642303FB11231B019B
:102BF0003233A0FB03035B0903F0F00202EB011286
:102C000003F00F03216813448B6010BDFFF7C4FC71
:102C10000246DDE7003801401F85EB512DE9F843FE
:102C200005460F4616469946DDF820802B681C683D
:102C300037EA04040CBF01240024B4422DD1B8F1BA
:102C4000FF3FF3D0B8F1000F05D0FFF777F9A0EB05
:102C500009004045EAD92A6802F10C0353E8003F15
:102C600023F4D0730C3242E800310029F3D12A68F2
:102C700002F1140353E8003F23F00103143242E849
:102C800000310029F3D1202385F8413085F8423006
:102C9000002385F84030032000E00020BDE8F883E1
:102CA00060B310B5044690F8413013B3242384F880
:102CB00041302268D36823F40053D3602046FFF7E5
:102CC00063FF2268136923F49043136122685369F8
:102CD00023F02A0353612268D36843F40053D3607E
:102CE00000206064202384F8413084F8423060631F
:102CF00010BD80F84030FFF7D9FED7E701207047BC
:102D00002DE9F04182B01E4690F84130DBB2202B15
:102D10004BD104460D46904600294AD00AB90120FD
:102D200044E000234364212380F84130FFF706F993
:102D30000746A4F82480A4F82680A368B3F5805F32
:102D400002D04FF000080FE02369FBB14FF00008FC
:102D50000AE038F8023B2268C3F308035360E28CB0
:102D600092B2013A92B2E284E38C9BB28BB10096AC
:102D70003B46002280212046FFF750FFD8B9002DA6
:102D8000E7D015F8012B23685A60E8E7A84600252C
:102D9000EAE700963B46002240212046FFF73EFF2F
:102DA00058B9202384F8413000E0022002B0BDE889
:102DB000F0810120FAE70320F8E70320F6E700009E
:102DC00000B585B000230193029303931048114A84
:102DD00002608360037303754FF46022C261436035
:102DE0000123036100F048FA60B900230193012236
:102DF0000292039301A9064800F072F928B905B0C0
:102E00005DF804FBFEF7E2FBEFE7FEF7DFFBF6E71A
:102E1000300100200024014000B587B00023029358
:102E20000393049305930268114B9A4202D007B0B2
:102E30005DF804FB03F56C439A6942F400729A61F1
:102E40009A6902F400720092009A9A6942F00402B0
:102E50009A619B6903F004030193019B0123029390
:102E60000323039302A90348FFF732FCDFE700BF07
:102E7000002401400008014008B50B480B4B0360DB
:102E80000B4B436000238360C3604FF480420261B8
:102E900043618361C361036200F072FA00B908BD47
:102EA000FEF794FBFBE700BF6001002000540040E8
:102EB000801A060010B586B0002302930393049392
:102EC00005930268154B9A4201D006B010BD144C10
:102ED000A36943F00803A361A36903F00803009307
:102EE000009B4FF440730293122303930323059333
:102EF00002A90C48FFF7ECFB0B4A536843F0E06370
:102F000043F002035360E36943F40013E361E369B0
:102F100003F400130193019BD7E700BF0054004066
:102F200000100240000C01400000014000B587B0D5
:102F30000023029303930493059300930193154890
:102F4000154A02604722426083604FF6FF72C260FA
:102F500003618361FEF7F6FD90B94FF4805302934D
:102F600002A90C48FEF7EEFE68B900230093019316
:102F700069460848FEF766FF40B907B05DF804FBF4
:102F8000FEF724FBE9E7FEF721FBEEE7FEF71EFB69
:102F9000F3E700BFB4010020000400400368B3F170
:102FA000804F00D0704782B003F50433DA6942F0F5
:102FB0000102DA61DB6903F001030193019B02B0B6
:102FC0007047000002680E4B9A4200D0704700B56F
:102FD00083B003F50333DA6942F00202DA61DB6998
:102FE00003F002030193019B002211461D20FFF70D
:102FF000D1FC1D20FFF7DEFC03B05DF804FB00BF31
:103000000004004000B587B00023029303930493AB
:1030100005930368B3F1804F02D007B05DF804FB5D
:1030200003F504339A6942F004029A619B6903F044
:1030300004030193019B0C23029302230393059342
:1030400002A90248FFF744FBE7E700BF0008014080
:1030500000B58BB000230893099301930293039367
:1030600004930593069307931C484FF08042026037
:103070004722426083606422C26003618361FEF77D
:103080008DFDF8B900230893099308A91348FEF7AA
:10309000D9FED0B9602301930023029303930593D3
:1030A000082201A90D48FEF7D3FD88B90C2201A919
:1030B0000A48FEF7CDFD70B90848FFF7A3FF0BB033
:1030C0005DF804FBFEF782FADCE7FEF77FFAE1E742
:1030D000FEF77CFAEAE7FEF779FAEDE7FC0100205B
:1030E00030B482B00022019290F82420012A00F02E
:1030F0008F800346012280F824204A68062A2DD8B2
:103100000468606B02EB8202053A4FF01F0C0CFA68
:1031100002FC20EA0C000D6805FA02F20243626329
:103120000A68092A38D91C68E06802EB42021E3A94
:103130004FF0070C0CFA02FC20EA0C008D6805FA2F
:1031400002F20243E2600A68103A012A34D90020F0
:10315000002283F8242002B030BC70470C2A0DD81E
:103160000568286B02EB8202233A1F24944020EA70
:1031700004000C68944020432863D1E70568E86A9E
:1031800002EB8202413A1F24944020EA04000C68BA
:1031900094402043E862C3E71C68206902EB4202C6
:1031A0004FF0070C0CFA02FC20EA0C008D6805FABF
:1031B00002F202432261C6E71A681648824205D02D
:1031C0009A6A42F020029A620120C1E7906810F4E6
:1031D000000F1BD1906840F4000090600A68102A2C
:1031E00001D00020B4E70C4A12680C49A1FB02127E
:1031F000920C02EB82025200019202E0019A013A23
:103200000192019A002AF9D10020A1E700209FE74E
:103210000220A0E7002401406C00002083DE1B4355
:1032200038B503689A6812F0010F01D1002038BD4B
:1032300004469A6822F001029A60FEF77FFE054676
:1032400023689B6813F0010F13D0FEF777FE431B32
:10325000022BF5D923689B6813F0010FF0D0A36A05
:1032600043F01003A362E36A43F00103E362012029
:10327000DDE70020DBE7000000287BD070B50446C6
:10328000836A002B4DD02046FFF7CAFFA36A13F0D4
:10329000100369D1002867D1A26A22F4885222F073
:1032A000020242F00202A2626268E1690A43217BE3
:1032B00042EA4102A568B5F5807F02D0012D36D0E3
:1032C0001D46267D012E35D02668716821F469419E
:1032D000294371602568AE68274931401143A960D0
:1032E000A168B1F5807F01D0012902D12369013B9A
:1032F0001B052568E96A21F470010B43EB62236822
:1033000099681E4B0B409A4225D0A36A23F0120302
:1033100043F01003A362E36A43F00103E362012078
:1033200027E0C36280F82430FFF776FDABE74FF467
:103330008075C6E731B9A169013945EA413141F4E7
:103340000065C1E7A16A41F02001A162E16A41F094
:103350000101E162B8E70023E362A36A23F00303FB
:1033600043F00103A36204E0A36A43F01003A362E5
:10337000012070BD01207047FDF7E1FFFE0E1FFF29
:10338000002800F0CC8070B5044690F83D30002B4A
:1033900077D0242384F83D302268136823F001039A
:1033A00013602268136843F40043136022681368B3
:1033B00023F400431360FFF7DFF862685A4B9A4228
:1033C00064D85A4B98428CBF00230123002B40F055
:1033D000A8805749A1FB00318B0C25686A6822F050
:1033E0003F0242EA91426A6021680A6A22F03F0283
:1033F00066684D4DAE424FD8013313430B622168CE
:10340000CA6922F44F4222F0FF026568464B9D4292
:103410004CD8431E6D00B3FBF5F3013340F6FC704E
:10342000034278D0C3F30B031A43CA6121680B68C7
:1034300023F0C003E269206A024313430B60216852
:103440008B6823F4034323F0FF032269E0680243FF
:1034500013438B602168CB6823F0FF036269A06986
:1034600002431343CB602268136843F001031360E7
:1034700000202064202384F83D30206384F83E003F
:1034800070BD80F83C30FFF715FD82E7294B98426C
:103490008CBF0023012399E74FF4967505FB03F3D6
:1034A000254DA5FB03539B090133A6E7A668BEB9CA
:1034B000431E05EB450CB3FBFCF30133C3F30B03D5
:1034C000B3FA83F35B0943BBC6B9431E05EB45055D
:1034D000B3FBF5F30133C3F30B0343F40043A3E75A
:1034E000431E05EB850C0CEB8C0CB3FBFCF301339A
:1034F000C3F30B03B3FA83F35B09E4E7431E05EB65
:10350000850505EB8505B3FBF5F30133C3F30B0329
:1035100043F4404388E7042386E7012384E701203E
:1035200070470120ACE700BFA08601007F841E0029
:1035300083DE1B43FF083D00D34D621000000000F6
:1035400010B5234C012211462046FFF7D6F9012081
:10355000FEF7FAFC002201212046FFF7CEF90221F6
:103560001B48FFF7C3F90028F9D01A4B1B6800224B
:103570005A621A6842F001021A6002211448FFF7E9
:10358000B5F90128F9D0134B1B68586A196A41F242
:103590001112114208D1196A40F24442114203D17A
:1035A0001A6822F001021A60FDF776FF06A3D3E93C
:1035B0000023FDF705FD0022074BFDF701FDFDF798
:1035C000E5FF10BDAFF300809CC420B07268A13F3E
:1035D000000C0140B40100200000E03FFFF70CFAAE
:1035E0000B480C490C4A002302E0D458C450043361
:1035F000C4188C42F9D3094A094C002301E0136036
:103600000432A242FBD3FCF7CDFDFEF723F870474E
:103610000000002070000020C43600087000002068
:1036200044020020FEE70000F8B500BFF8BC08BC6B
:103630009E467047F8B500BFF8BC08BC9E46704770
:1036400044697374616E63653A20256420636D0D6F
:103650000A00000001020000020304050607080931
:103660000A0B0C0D0E0F10100000000001020304E5
:103670000000000000000000010203040607080922
:10368000232D302B20000000686C4C0065666745D8
:10369000464700003031323334353637383941420D
:1036A000434445460000000030313233343536376C
:0C36B00038396162636465660000000048
:0436BC007901000888
:0436C00051010008AC
:1036C40004000020000000000000000000000000D2
:1036D40000000000000000000000000000000000E6
:1036E40000000000000000000000000000000000D6
:1036F40000000000000000000000000000000000C6
:1037040000000000000000000000000000000000B5
:1037140000000000000000000000000000000000A5
:103724000000000001000000100000000024F4006C
:04000005080035DDDD
:00000001FF
